23:25:10.245801 IP (tos 0x0, ttl 64, id 26984, offset 0, flags [DF], proto TCP (6), length 60)
    localhost.38272 > localhost.8007: Flags [S], cksum 0xfe30 (incorrect -> 0x5736), seq 3899272254, win 65495, options [mss 65495,sackOK,TS val 2030810703 ecr 0,nop,wscale 7], length 0
23:25:10.245813 IP (tos 0x0, ttl 64, id 0, offset 0, flags [DF], proto TCP (6), length 60)
    localhost.8007 > localhost.38272: Flags [S.], cksum 0xfe30 (incorrect -> 0xc44a), seq 678902548, ack 3899272255, win 65483, options [mss 65495,sackOK,TS val 2030810703 ecr 2030810703,nop,wscale 7], length 0
23:25:10.245823 IP (tos 0x0, ttl 64, id 26985, offset 0, flags [DF], proto TCP (6), length 52)
    localhost.38272 > localhost.8007: Flags [.], cksum 0xfe28 (incorrect -> 0xeb06), seq 1, ack 1, win 512, options [nop,nop,TS val 2030810703 ecr 2030810703], length 0
23:25:11.650259 IP (tos 0x0, ttl 64, id 26986, offset 0, flags [DF], proto TCP (6), length 60)
    localhost.38272 > localhost.8007: Flags [P.], cksum 0xfe30 (incorrect -> 0x7041), seq 1:9, ack 1, win 512, options [nop,nop,TS val 2030812107 ecr 2030810703], length 8
23:25:11.650289 IP (tos 0x0, ttl 64, id 10148, offset 0, flags [DF], proto TCP (6), length 52)
    localhost.8007 > localhost.38272: Flags [.], cksum 0xfe28 (incorrect -> 0xe006), seq 1, ack 9, win 512, options [nop,nop,TS val 2030812107 ecr 2030812107], length 0
23:25:11.650403 IP (tos 0x0, ttl 64, id 10149, offset 0, flags [DF], proto TCP (6), length 56)
    localhost.8007 > localhost.38272: Flags [P.], cksum 0xfe2c (incorrect -> 0x0026), seq 1:5, ack 9, win 512, options [nop,nop,TS val 2030812107 ecr 2030812107], length 4
23:25:11.650408 IP (tos 0x0, ttl 64, id 26987, offset 0, flags [DF], proto TCP (6), length 52)
    localhost.38272 > localhost.8007: Flags [.], cksum 0xfe28 (incorrect -> 0xe002), seq 9, ack 5, win 512, options [nop,nop,TS val 2030812107 ecr 2030812107], length 0
23:25:14.434343 IP (tos 0x0, ttl 64, id 26988, offset 0, flags [DF], proto TCP (6), length 60)
    localhost.38272 > localhost.8007: Flags [P.], cksum 0xfe30 (incorrect -> 0x5dd4), seq 9:17, ack 5, win 512, options [nop,nop,TS val 2030814891 ecr 2030812107], length 8
23:25:14.434355 IP (tos 0x0, ttl 64, id 10150, offset 0, flags [DF], proto TCP (6), length 52)
    localhost.8007 > localhost.38272: Flags [.], cksum 0xfe28 (incorrect -> 0xca3a), seq 5, ack 17, win 512, options [nop,nop,TS val 2030814891 ecr 2030814891], length 0
23:25:14.434495 IP (tos 0x0, ttl 64, id 10151, offset 0, flags [DF], proto TCP (6), length 56)
    localhost.8007 > localhost.38272: Flags [P.], cksum 0xfe2c (incorrect -> 0xea59), seq 5:9, ack 17, win 512, options [nop,nop,TS val 2030814891 ecr 2030814891], length 4
23:25:14.434521 IP (tos 0x0, ttl 64, id 26989, offset 0, flags [DF], proto TCP (6), length 52)
    localhost.38272 > localhost.8007: Flags [.], cksum 0xfe28 (incorrect -> 0xca36), seq 17, ack 9, win 512, options [nop,nop,TS val 2030814891 ecr 2030814891], length 0
23:25:16.979145 IP (tos 0x0, ttl 64, id 26990, offset 0, flags [DF], proto TCP (6), length 60)
    localhost.38272 > localhost.8007: Flags [P.], cksum 0xfe30 (incorrect -> 0x47f7), seq 17:25, ack 9, win 512, options [nop,nop,TS val 2030817436 ecr 2030814891], length 8
23:25:16.979177 IP (tos 0x0, ttl 64, id 10152, offset 0, flags [DF], proto TCP (6), length 52)
    localhost.8007 > localhost.38272: Flags [.], cksum 0xfe28 (incorrect -> 0xb64c), seq 9, ack 25, win 512, options [nop,nop,TS val 2030817436 ecr 2030817436], length 0
23:25:16.979346 IP (tos 0x0, ttl 64, id 10153, offset 0, flags [DF], proto TCP (6), length 56)
    localhost.8007 > localhost.38272: Flags [P.], cksum 0xfe2c (incorrect -> 0xd66b), seq 9:13, ack 25, win 512, options [nop,nop,TS val 2030817436 ecr 2030817436], length 4
23:25:16.979363 IP (tos 0x0, ttl 64, id 26991, offset 0, flags [DF], proto TCP (6), length 52)
    localhost.38272 > localhost.8007: Flags [.], cksum 0xfe28 (incorrect -> 0xb648), seq 25, ack 13, win 512, options [nop,nop,TS val 2030817436 ecr 2030817436], length 0
23:25:19.567115 IP (tos 0x0, ttl 64, id 26992, offset 0, flags [DF], proto TCP (6), length 60)
    localhost.38272 > localhost.8007: Flags [P.], cksum 0xfe30 (incorrect -> 0x32e3), seq 25:33, ack 13, win 512, options [nop,nop,TS val 2030820024 ecr 2030817436], length 8
23:25:19.567241 IP (tos 0x0, ttl 64, id 10154, offset 0, flags [DF], proto TCP (6), length 56)
    localhost.8007 > localhost.38272: Flags [P.], cksum 0xfe2c (incorrect -> 0xc227), seq 13:17, ack 33, win 512, options [nop,nop,TS val 2030820024 ecr 2030820024], length 4
23:25:19.567246 IP (tos 0x0, ttl 64, id 26993, offset 0, flags [DF], proto TCP (6), length 52)
    localhost.38272 > localhost.8007: Flags [.], cksum 0xfe28 (incorrect -> 0xa204), seq 33, ack 17, win 512, options [nop,nop,TS val 2030820024 ecr 2030820024], length 0
23:25:20.678104 IP (tos 0x0, ttl 64, id 26994, offset 0, flags [DF], proto TCP (6), length 60)
    localhost.38272 > localhost.8007: Flags [P.], cksum 0xfe30 (incorrect -> 0x245f), seq 33:41, ack 17, win 512, options [nop,nop,TS val 2030821135 ecr 2030820024], length 8
23:25:20.678338 IP (tos 0x0, ttl 64, id 10155, offset 0, flags [DF], proto TCP (6), length 56)
    localhost.8007 > localhost.38272: Flags [P.], cksum 0xfe2c (incorrect -> 0xb969), seq 17:21, ack 41, win 512, options [nop,nop,TS val 2030821135 ecr 2030821135], length 4
23:25:20.678344 IP (tos 0x0, ttl 64, id 26995, offset 0, flags [DF], proto TCP (6), length 52)
    localhost.38272 > localhost.8007: Flags [.], cksum 0xfe28 (incorrect -> 0x994a), seq 41, ack 21, win 512, options [nop,nop,TS val 2030821135 ecr 2030821135], length 0
23:25:22.351858 IP (tos 0x0, ttl 64, id 26996, offset 0, flags [DF], proto TCP (6), length 60)
    localhost.38272 > localhost.8007: Flags [P.], cksum 0xfe30 (incorrect -> 0x1974), seq 41:49, ack 21, win 512, options [nop,nop,TS val 2030822809 ecr 2030821135], length 8
23:25:22.352032 IP (tos 0x0, ttl 64, id 10156, offset 0, flags [DF], proto TCP (6), length 56)
    localhost.8007 > localhost.38272: Flags [P.], cksum 0xfe2c (incorrect -> 0xac49), seq 21:25, ack 49, win 512, options [nop,nop,TS val 2030822809 ecr 2030822809], length 4
23:25:22.352067 IP (tos 0x0, ttl 64, id 26997, offset 0, flags [DF], proto TCP (6), length 52)
    localhost.38272 > localhost.8007: Flags [.], cksum 0xfe28 (incorrect -> 0x8c2a), seq 49, ack 25, win 512, options [nop,nop,TS val 2030822809 ecr 2030822809], length 0
23:25:23.694242 IP (tos 0x0, ttl 64, id 26998, offset 0, flags [DF], proto TCP (6), length 60)
    localhost.38272 > localhost.8007: Flags [P.], cksum 0xfe30 (incorrect -> 0x0da1), seq 49:57, ack 25, win 512, options [nop,nop,TS val 2030824151 ecr 2030822809], length 8
23:25:23.694415 IP (tos 0x0, ttl 64, id 10157, offset 0, flags [DF], proto TCP (6), length 59)
    localhost.8007 > localhost.38272: Flags [P.], cksum 0xfe2f (incorrect -> 0xd251), seq 25:32, ack 57, win 512, options [nop,nop,TS val 2030824151 ecr 2030824151], length 7
23:25:23.694421 IP (tos 0x0, ttl 64, id 26999, offset 0, flags [DF], proto TCP (6), length 52)
    localhost.38272 > localhost.8007: Flags [.], cksum 0xfe28 (incorrect -> 0x819f), seq 57, ack 32, win 512, options [nop,nop,TS val 2030824151 ecr 2030824151], length 0
23:25:23.694439 IP (tos 0x0, ttl 64, id 10158, offset 0, flags [DF], proto TCP (6), length 52)
    localhost.8007 > localhost.38272: Flags [F.], cksum 0xfe28 (incorrect -> 0x819e), seq 32, ack 57, win 512, options [nop,nop,TS val 2030824151 ecr 2030824151], length 0
23:25:23.695416 IP (tos 0x0, ttl 64, id 27000, offset 0, flags [DF], proto TCP (6), length 52)
    localhost.38272 > localhost.8007: Flags [F.], cksum 0xfe28 (incorrect -> 0x819c), seq 57, ack 33, win 512, options [nop,nop,TS val 2030824152 ecr 2030824151], length 0
23:25:23.695422 IP (tos 0x0, ttl 64, id 10159, offset 0, flags [DF], proto TCP (6), length 52)
    localhost.8007 > localhost.38272: Flags [.], cksum 0xfe28 (incorrect -> 0x819b), seq 33, ack 58, win 512, options [nop,nop,TS val 2030824152 ecr 2030824152], length 0

23:26:08.864344 IP (tos 0x0, ttl 64, id 3752, offset 0, flags [DF], proto TCP (6), length 60)
    localhost.38274 > localhost.8007: Flags [S], cksum 0xfe30 (incorrect -> 0x37ab), seq 2674372559, win 65495, options [mss 65495,sackOK,TS val 2030869321 ecr 0,nop,wscale 7], length 0
E..<..@.@..............G.g...........0.........
y..I........
23:26:08.864358 IP (tos 0x0, ttl 64, id 0, offset 0, flags [DF], proto TCP (6), length 60)
    localhost.8007 > localhost.38274: Flags [S.], cksum 0xfe30 (incorrect -> 0xa610), seq 2648235878, ack 2674372560, win 65483, options [mss 65495,sackOK,TS val 2030869321 ecr 2030869321,nop,wscale 7], length 0
E..<..@.@.<..........G.....f.g.......0.........
y..Iy..I....
23:26:08.864368 IP (tos 0x0, ttl 64, id 3753, offset 0, flags [DF], proto TCP (6), length 52)
    localhost.38274 > localhost.8007: Flags [.], cksum 0xfe28 (incorrect -> 0xcccc), ack 1, win 512, options [nop,nop,TS val 2030869321 ecr 2030869321], length 0
E..4..@.@..............G.g.....g.....(.....
y..Iy..I
23:26:11.364453 IP (tos 0x0, ttl 64, id 3754, offset 0, flags [DF], proto TCP (6), length 60)
    localhost.38274 > localhost.8007: Flags [P.], cksum 0xfe30 (incorrect -> 0x4dbf), seq 1:9, ack 1, win 512, options [nop,nop,TS val 2030871821 ecr 2030869321], length 8
E..<..@.@..............G.g.....g.....0.....
y...y..Iguess 50
23:26:11.364487 IP (tos 0x0, ttl 64, id 41232, offset 0, flags [DF], proto TCP (6), length 52)
    localhost.8007 > localhost.38274: Flags [.], cksum 0xfe28 (incorrect -> 0xb93c), ack 9, win 512, options [nop,nop,TS val 2030871821 ecr 2030871821], length 0
E..4..@.@............G.....g.g.......(.....
y...y..
23:26:11.364556 IP (tos 0x0, ttl 64, id 41233, offset 0, flags [DF], proto TCP (6), length 56)
    localhost.8007 > localhost.38274: Flags [P.], cksum 0xfe2c (incorrect -> 0xd957), seq 1:5, ack 9, win 512, options [nop,nop,TS val 2030871821 ecr 2030871821], length 4
E..8..@.@............G.....g.g.......,.....
y...y...less
23:26:11.364560 IP (tos 0x0, ttl 64, id 3755, offset 0, flags [DF], proto TCP (6), length 52)
    localhost.38274 > localhost.8007: Flags [.], cksum 0xfe28 (incorrect -> 0xb938), ack 5, win 512, options [nop,nop,TS val 2030871821 ecr 2030871821], length 0
E..4..@.@..............G.g.....k.....(.....
y...y..
23:26:14.616993 IP (tos 0x0, ttl 64, id 3756, offset 0, flags [DF], proto TCP (6), length 60)
    localhost.38274 > localhost.8007: Flags [P.], cksum 0xfe30 (incorrect -> 0x3a35), seq 9:17, ack 5, win 512, options [nop,nop,TS val 2030875074 ecr 2030871821], length 8
E..<..@.@..............G.g.....k.....0.....
y...y...guess 25
23:26:14.617022 IP (tos 0x0, ttl 64, id 41234, offset 0, flags [DF], proto TCP (6), length 52)
    localhost.8007 > localhost.38274: Flags [.], cksum 0xfe28 (incorrect -> 0x9fc6), ack 17, win 512, options [nop,nop,TS val 2030875074 ecr 2030875074], length 0
E..4..@.@............G.....k.g.......(.....
y...y...
23:26:14.617249 IP (tos 0x0, ttl 64, id 41235, offset 0, flags [DF], proto TCP (6), length 56)
    localhost.8007 > localhost.38274: Flags [P.], cksum 0xfe2c (incorrect -> 0xbfe1), seq 5:9, ack 17, win 512, options [nop,nop,TS val 2030875074 ecr 2030875074], length 4
E..8..@.@............G.....k.g.......,.....
y...y...less
23:26:14.617254 IP (tos 0x0, ttl 64, id 3757, offset 0, flags [DF], proto TCP (6), length 52)
    localhost.38274 > localhost.8007: Flags [.], cksum 0xfe28 (incorrect -> 0x9fc2), ack 9, win 512, options [nop,nop,TS val 2030875074 ecr 2030875074], length 0
E..4..@.@..............G.g.....o.....(.....
y...y...
23:26:16.463734 IP (tos 0x0, ttl 64, id 3758, offset 0, flags [DF], proto TCP (6), length 60)
    localhost.38274 > localhost.8007: Flags [P.], cksum 0xfe30 (incorrect -> 0x273d), seq 17:25, ack 9, win 512, options [nop,nop,TS val 2030876921 ecr 2030875074], length 8
E..<..@.@..............G.g.....o.....0.....
y...y...guess 15
23:26:16.463746 IP (tos 0x0, ttl 64, id 41236, offset 0, flags [DF], proto TCP (6), length 52)
    localhost.8007 > localhost.38274: Flags [.], cksum 0xfe28 (incorrect -> 0x914c), ack 25, win 512, options [nop,nop,TS val 2030876921 ecr 2030876921], length 0
E..4..@.@............G.....o.g.......(.....
y...y...
23:26:16.463861 IP (tos 0x0, ttl 64, id 41237, offset 0, flags [DF], proto TCP (6), length 56)
    localhost.8007 > localhost.38274: Flags [P.], cksum 0xfe2c (incorrect -> 0xb167), seq 9:13, ack 25, win 512, options [nop,nop,TS val 2030876921 ecr 2030876921], length 4
E..8..@.@............G.....o.g.......,.....
y...y...less
23:26:16.463866 IP (tos 0x0, ttl 64, id 3759, offset 0, flags [DF], proto TCP (6), length 52)
    localhost.38274 > localhost.8007: Flags [.], cksum 0xfe28 (incorrect -> 0x9148), ack 13, win 512, options [nop,nop,TS val 2030876921 ecr 2030876921], length 0
E..4..@.@..............G.g.....s.....(.....
y...y...
23:26:17.795678 IP (tos 0x0, ttl 64, id 3760, offset 0, flags [DF], proto TCP (6), length 60)
    localhost.38274 > localhost.8007: Flags [P.], cksum 0xfe30 (incorrect -> 0x1acb), seq 25:33, ack 13, win 512, options [nop,nop,TS val 2030878253 ecr 2030876921], length 8
E..<..@.@..
...........G.g.....s.....0.....
y..-y...guess 10
23:26:17.795778 IP (tos 0x0, ttl 64, id 41238, offset 0, flags [DF], proto TCP (6), length 56)
    localhost.8007 > localhost.38274: Flags [P.], cksum 0xfe2c (incorrect -> 0xa6f7), seq 13:17, ack 33, win 512, options [nop,nop,TS val 2030878253 ecr 2030878253], length 4
E..8..@.@............G.....s.g.......,.....
y..-y..-more
23:26:17.795788 IP (tos 0x0, ttl 64, id 3761, offset 0, flags [DF], proto TCP (6), length 52)
    localhost.38274 > localhost.8007: Flags [.], cksum 0xfe28 (incorrect -> 0x86d4), ack 17, win 512, options [nop,nop,TS val 2030878253 ecr 2030878253], length 0
E..4..@.@..............G.g.....w.....(.....
y..-y..-
23:26:21.423982 IP (tos 0x0, ttl 64, id 3762, offset 0, flags [DF], proto TCP (6), length 60)
    localhost.38274 > localhost.8007: Flags [P.], cksum 0xfe30 (incorrect -> 0x075d), seq 33:41, ack 17, win 512, options [nop,nop,TS val 2030881881 ecr 2030878253], length 8
E..<..@.@..............G.g.....w.....0.....
y..Yy..-guess 12
23:26:21.424179 IP (tos 0x0, ttl 64, id 41239, offset 0, flags [DF], proto TCP (6), length 56)
    localhost.8007 > localhost.38274: Flags [P.], cksum 0xfe2c (incorrect -> 0x8a8f), seq 17:21, ack 41, win 512, options [nop,nop,TS val 2030881881 ecr 2030881881], length 4
E..8..@.@............G.....w.g.......,.....
y..Yy..Yless
23:26:21.424186 IP (tos 0x0, ttl 64, id 3763, offset 0, flags [DF], proto TCP (6), length 52)
    localhost.38274 > localhost.8007: Flags [.], cksum 0xfe28 (incorrect -> 0x6a70), ack 21, win 512, options [nop,nop,TS val 2030881881 ecr 2030881881], length 0
E..4..@.@..............G.g.....{.....(.....
y..Yy..Y
23:26:22.830749 IP (tos 0x0, ttl 64, id 3764, offset 0, flags [DF], proto TCP (6), length 60)
    localhost.38274 > localhost.8007: Flags [P.], cksum 0xfe30 (incorrect -> 0xf3a6), seq 41:49, ack 21, win 512, options [nop,nop,TS val 2030883288 ecr 2030881881], length 8
E..<..@.@..............G.g.....{.....0.....
y...y..Yguess 11
23:26:22.830947 IP (tos 0x0, ttl 64, id 41240, offset 0, flags [DF], proto TCP (6), length 59)
    localhost.8007 > localhost.38274: Flags [P.], cksum 0xfe2f (incorrect -> 0xb015), seq 21:28, ack 49, win 512, options [nop,nop,TS val 2030883288 ecr 2030883288], length 7
E..;..@.@............G.....{.g......./.....
y...y...correct
23:26:22.830953 IP (tos 0x0, ttl 64, id 3765, offset 0, flags [DF], proto TCP (6), length 52)
    localhost.38274 > localhost.8007: Flags [.], cksum 0xfe28 (incorrect -> 0x5f63), ack 28, win 512, options [nop,nop,TS val 2030883288 ecr 2030883288], length 0
E..4..@.@..............G.g...........(.....
y...y...
23:26:22.830975 IP (tos 0x0, ttl 64, id 41241, offset 0, flags [DF], proto TCP (6), length 52)
    localhost.8007 > localhost.38274: Flags [F.], cksum 0xfe28 (incorrect -> 0x5f62), seq 28, ack 49, win 512, options [nop,nop,TS val 2030883288 ecr 2030883288], length 0
E..4..@.@............G.......g.......(.....
y...y...
23:26:22.832681 IP (tos 0x0, ttl 64, id 3766, offset 0, flags [DF], proto TCP (6), length 52)
    localhost.38274 > localhost.8007: Flags [F.], cksum 0xfe28 (incorrect -> 0x5f5f), seq 49, ack 29, win 512, options [nop,nop,TS val 2030883290 ecr 2030883288], length 0
E..4..@.@..............G.g...........(.....
y...y...
23:26:22.832699 IP (tos 0x0, ttl 64, id 41242, offset 0, flags [DF], proto TCP (6), length 52)
    localhost.8007 > localhost.38274: Flags [.], cksum 0xfe28 (incorrect -> 0x5f5d), ack 50, win 512, options [nop,nop,TS val 2030883290 ecr 2030883290], length 0
E..4..@.@............G.......g.......(.....
y...y...

23:26:39.744492 IP (tos 0x0, ttl 64, id 29182, offset 0, flags [DF], proto TCP (6), length 60)
    localhost.38276 > localhost.8007: Flags [S], cksum 0xfe30 (incorrect -> 0x56ad), seq 1014070049, win 65495, options [mss 65495,sackOK,TS val 2030900201 ecr 0,nop,wscale 7], length 0
	0x0000:  0000 0000 0000 0000 0000 0000 0800 4500  ..............E.
	0x0010:  003c 71fe 4000 4006 cabb 7f00 0001 7f00  .<q.@.@.........
	0x0020:  0001 9584 1f47 3c71 7b21 0000 0000 a002  .....G<q{!......
	0x0030:  ffd7 fe30 0000 0204 ffd7 0402 080a 790d  ...0..........y.
	0x0040:  13e9 0000 0000 0103 0307                 ..........
23:26:39.744502 IP (tos 0x0, ttl 64, id 0, offset 0, flags [DF], proto TCP (6), length 60)
    localhost.8007 > localhost.38276: Flags [S.], cksum 0xfe30 (incorrect -> 0xd121), seq 2199745906, ack 1014070050, win 65483, options [mss 65495,sackOK,TS val 2030900201 ecr 2030900201,nop,wscale 7], length 0
	0x0000:  0000 0000 0000 0000 0000 0000 0800 4500  ..............E.
	0x0010:  003c 0000 4000 4006 3cba 7f00 0001 7f00  .<..@.@.<.......
	0x0020:  0001 1f47 9584 831d 7572 3c71 7b22 a012  ...G....ur<q{"..
	0x0030:  ffcb fe30 0000 0204 ffd7 0402 080a 790d  ...0..........y.
	0x0040:  13e9 790d 13e9 0103 0307                 ..y.......
23:26:39.744510 IP (tos 0x0, ttl 64, id 29183, offset 0, flags [DF], proto TCP (6), length 52)
    localhost.38276 > localhost.8007: Flags [.], cksum 0xfe28 (incorrect -> 0xf7dd), ack 1, win 512, options [nop,nop,TS val 2030900201 ecr 2030900201], length 0
	0x0000:  0000 0000 0000 0000 0000 0000 0800 4500  ..............E.
	0x0010:  0034 71ff 4000 4006 cac2 7f00 0001 7f00  .4q.@.@.........
	0x0020:  0001 9584 1f47 3c71 7b22 831d 7573 8010  .....G<q{"..us..
	0x0030:  0200 fe28 0000 0101 080a 790d 13e9 790d  ...(......y...y.
	0x0040:  13e9                                     ..
23:26:41.626972 IP (tos 0x0, ttl 64, id 29184, offset 0, flags [DF], proto TCP (6), length 60)
    localhost.38276 > localhost.8007: Flags [P.], cksum 0xfe30 (incorrect -> 0x7b39), seq 1:9, ack 1, win 512, options [nop,nop,TS val 2030902084 ecr 2030900201], length 8
	0x0000:  0000 0000 0000 0000 0000 0000 0800 4500  ..............E.
	0x0010:  003c 7200 4000 4006 cab9 7f00 0001 7f00  .<r.@.@.........
	0x0020:  0001 9584 1f47 3c71 7b22 831d 7573 8018  .....G<q{"..us..
	0x0030:  0200 fe30 0000 0101 080a 790d 1b44 790d  ...0......y..Dy.
	0x0040:  13e9 6775 6573 7320 3530                 ..guess.50
23:26:41.627005 IP (tos 0x0, ttl 64, id 53221, offset 0, flags [DF], proto TCP (6), length 52)
    localhost.8007 > localhost.38276: Flags [.], cksum 0xfe28 (incorrect -> 0xe91f), ack 9, win 512, options [nop,nop,TS val 2030902084 ecr 2030902084], length 0
	0x0000:  0000 0000 0000 0000 0000 0000 0800 4500  ..............E.
	0x0010:  0034 cfe5 4000 4006 6cdc 7f00 0001 7f00  .4..@.@.l.......
	0x0020:  0001 1f47 9584 831d 7573 3c71 7b2a 8010  ...G....us<q{*..
	0x0030:  0200 fe28 0000 0101 080a 790d 1b44 790d  ...(......y..Dy.
	0x0040:  1b44                                     .D
23:26:41.627114 IP (tos 0x0, ttl 64, id 53222, offset 0, flags [DF], proto TCP (6), length 56)
    localhost.8007 > localhost.38276: Flags [P.], cksum 0xfe2c (incorrect -> 0x093f), seq 1:5, ack 9, win 512, options [nop,nop,TS val 2030902084 ecr 2030902084], length 4
	0x0000:  0000 0000 0000 0000 0000 0000 0800 4500  ..............E.
	0x0010:  0038 cfe6 4000 4006 6cd7 7f00 0001 7f00  .8..@.@.l.......
	0x0020:  0001 1f47 9584 831d 7573 3c71 7b2a 8018  ...G....us<q{*..
	0x0030:  0200 fe2c 0000 0101 080a 790d 1b44 790d  ...,......y..Dy.
	0x0040:  1b44 6d6f 7265                           .Dmore
23:26:41.627117 IP (tos 0x0, ttl 64, id 29185, offset 0, flags [DF], proto TCP (6), length 52)
    localhost.38276 > localhost.8007: Flags [.], cksum 0xfe28 (incorrect -> 0xe91b), ack 5, win 512, options [nop,nop,TS val 2030902084 ecr 2030902084], length 0
	0x0000:  0000 0000 0000 0000 0000 0000 0800 4500  ..............E.
	0x0010:  0034 7201 4000 4006 cac0 7f00 0001 7f00  .4r.@.@.........
	0x0020:  0001 9584 1f47 3c71 7b2a 831d 7577 8010  .....G<q{*..uw..
	0x0030:  0200 fe28 0000 0101 080a 790d 1b44 790d  ...(......y..Dy.
	0x0040:  1b44                                     .D
23:26:47.283183 IP (tos 0x0, ttl 64, id 29186, offset 0, flags [DF], proto TCP (6), length 60)
    localhost.38276 > localhost.8007: Flags [P.], cksum 0xfe30 (incorrect -> 0x5bb5), seq 9:17, ack 5, win 512, options [nop,nop,TS val 2030907740 ecr 2030902084], length 8
	0x0000:  0000 0000 0000 0000 0000 0000 0800 4500  ..............E.
	0x0010:  003c 7202 4000 4006 cab7 7f00 0001 7f00  .<r.@.@.........
	0x0020:  0001 9584 1f47 3c71 7b2a 831d 7577 8018  .....G<q{*..uw..
	0x0030:  0200 fe30 0000 0101 080a 790d 315c 790d  ...0......y.1\y.
	0x0040:  1b44 6775 6573 7320 3735                 .Dguess.75
23:26:47.283195 IP (tos 0x0, ttl 64, id 53223, offset 0, flags [DF], proto TCP (6), length 52)
    localhost.8007 > localhost.38276: Flags [.], cksum 0xfe28 (incorrect -> 0xbce3), ack 17, win 512, options [nop,nop,TS val 2030907740 ecr 2030907740], length 0
	0x0000:  0000 0000 0000 0000 0000 0000 0800 4500  ..............E.
	0x0010:  0034 cfe7 4000 4006 6cda 7f00 0001 7f00  .4..@.@.l.......
	0x0020:  0001 1f47 9584 831d 7577 3c71 7b32 8010  ...G....uw<q{2..
	0x0030:  0200 fe28 0000 0101 080a 790d 315c 790d  ...(......y.1\y.
	0x0040:  315c                                     1\
23:26:47.283284 IP (tos 0x0, ttl 64, id 53224, offset 0, flags [DF], proto TCP (6), length 56)
    localhost.8007 > localhost.38276: Flags [P.], cksum 0xfe2c (incorrect -> 0xdd02), seq 5:9, ack 17, win 512, options [nop,nop,TS val 2030907740 ecr 2030907740], length 4
	0x0000:  0000 0000 0000 0000 0000 0000 0800 4500  ..............E.
	0x0010:  0038 cfe8 4000 4006 6cd5 7f00 0001 7f00  .8..@.@.l.......
	0x0020:  0001 1f47 9584 831d 7577 3c71 7b32 8018  ...G....uw<q{2..
	0x0030:  0200 fe2c 0000 0101 080a 790d 315c 790d  ...,......y.1\y.
	0x0040:  315c 6d6f 7265                           1\more
23:26:47.283287 IP (tos 0x0, ttl 64, id 29187, offset 0, flags [DF], proto TCP (6), length 52)
    localhost.38276 > localhost.8007: Flags [.], cksum 0xfe28 (incorrect -> 0xbcdf), ack 9, win 512, options [nop,nop,TS val 2030907740 ecr 2030907740], length 0
	0x0000:  0000 0000 0000 0000 0000 0000 0800 4500  ..............E.
	0x0010:  0034 7203 4000 4006 cabe 7f00 0001 7f00  .4r.@.@.........
	0x0020:  0001 9584 1f47 3c71 7b32 831d 757b 8010  .....G<q{2..u{..
	0x0030:  0200 fe28 0000 0101 080a 790d 315c 790d  ...(......y.1\y.
	0x0040:  315c                                     1\
23:26:49.847855 IP (tos 0x0, ttl 64, id 29188, offset 0, flags [DF], proto TCP (6), length 60)
    localhost.38276 > localhost.8007: Flags [P.], cksum 0xfe30 (incorrect -> 0x3a8c), seq 17:25, ack 9, win 512, options [nop,nop,TS val 2030910305 ecr 2030907740], length 8
	0x0000:  0000 0000 0000 0000 0000 0000 0800 4500  ..............E.
	0x0010:  003c 7204 4000 4006 cab5 7f00 0001 7f00  .<r.@.@.........
	0x0020:  0001 9584 1f47 3c71 7b32 831d 757b 8018  .....G<q{2..u{..
	0x0030:  0200 fe30 0000 0101 080a 790d 3b61 790d  ...0......y.;ay.
	0x0040:  315c 6775 6573 7320 3835                 1\guess.85
23:26:49.847907 IP (tos 0x0, ttl 64, id 53225, offset 0, flags [DF], proto TCP (6), length 52)
    localhost.8007 > localhost.38276: Flags [.], cksum 0xfe28 (incorrect -> 0xa8cd), ack 25, win 512, options [nop,nop,TS val 2030910305 ecr 2030910305], length 0
	0x0000:  0000 0000 0000 0000 0000 0000 0800 4500  ..............E.
	0x0010:  0034 cfe9 4000 4006 6cd8 7f00 0001 7f00  .4..@.@.l.......
	0x0020:  0001 1f47 9584 831d 757b 3c71 7b3a 8010  ...G....u{<q{:..
	0x0030:  0200 fe28 0000 0101 080a 790d 3b61 790d  ...(......y.;ay.
	0x0040:  3b61                                     ;a
23:26:49.847994 IP (tos 0x0, ttl 64, id 53226, offset 0, flags [DF], proto TCP (6), length 56)
    localhost.8007 > localhost.38276: Flags [P.], cksum 0xfe2c (incorrect -> 0xc8ec), seq 9:13, ack 25, win 512, options [nop,nop,TS val 2030910305 ecr 2030910305], length 4
	0x0000:  0000 0000 0000 0000 0000 0000 0800 4500  ..............E.
	0x0010:  0038 cfea 4000 4006 6cd3 7f00 0001 7f00  .8..@.@.l.......
	0x0020:  0001 1f47 9584 831d 757b 3c71 7b3a 8018  ...G....u{<q{:..
	0x0030:  0200 fe2c 0000 0101 080a 790d 3b61 790d  ...,......y.;ay.
	0x0040:  3b61 6d6f 7265                           ;amore
23:26:49.847999 IP (tos 0x0, ttl 64, id 29189, offset 0, flags [DF], proto TCP (6), length 52)
    localhost.38276 > localhost.8007: Flags [.], cksum 0xfe28 (incorrect -> 0xa8c9), ack 13, win 512, options [nop,nop,TS val 2030910305 ecr 2030910305], length 0
	0x0000:  0000 0000 0000 0000 0000 0000 0800 4500  ..............E.
	0x0010:  0034 7205 4000 4006 cabc 7f00 0001 7f00  .4r.@.@.........
	0x0020:  0001 9584 1f47 3c71 7b3a 831d 757f 8010  .....G<q{:..u...
	0x0030:  0200 fe28 0000 0101 080a 790d 3b61 790d  ...(......y.;ay.
	0x0040:  3b61                                     ;a
23:26:51.765728 IP (tos 0x0, ttl 64, id 29190, offset 0, flags [DF], proto TCP (6), length 60)
    localhost.38276 > localhost.8007: Flags [P.], cksum 0xfe30 (incorrect -> 0x2802), seq 25:33, ack 13, win 512, options [nop,nop,TS val 2030912223 ecr 2030910305], length 8
	0x0000:  0000 0000 0000 0000 0000 0000 0800 4500  ..............E.
	0x0010:  003c 7206 4000 4006 cab3 7f00 0001 7f00  .<r.@.@.........
	0x0020:  0001 9584 1f47 3c71 7b3a 831d 757f 8018  .....G<q{:..u...
	0x0030:  0200 fe30 0000 0101 080a 790d 42df 790d  ...0......y.B.y.
	0x0040:  3b61 6775 6573 7320 3930                 ;aguess.90
23:26:51.765897 IP (tos 0x0, ttl 64, id 53227, offset 0, flags [DF], proto TCP (6), length 56)
    localhost.8007 > localhost.38276: Flags [P.], cksum 0xfe2c (incorrect -> 0xb9e0), seq 13:17, ack 33, win 512, options [nop,nop,TS val 2030912223 ecr 2030912223], length 4
	0x0000:  0000 0000 0000 0000 0000 0000 0800 4500  ..............E.
	0x0010:  0038 cfeb 4000 4006 6cd2 7f00 0001 7f00  .8..@.@.l.......
	0x0020:  0001 1f47 9584 831d 757f 3c71 7b42 8018  ...G....u.<q{B..
	0x0030:  0200 fe2c 0000 0101 080a 790d 42df 790d  ...,......y.B.y.
	0x0040:  42df 6c65 7373                           B.less
23:26:51.765915 IP (tos 0x0, ttl 64, id 29191, offset 0, flags [DF], proto TCP (6), length 52)
    localhost.38276 > localhost.8007: Flags [.], cksum 0xfe28 (incorrect -> 0x99c1), ack 17, win 512, options [nop,nop,TS val 2030912223 ecr 2030912223], length 0
	0x0000:  0000 0000 0000 0000 0000 0000 0800 4500  ..............E.
	0x0010:  0034 7207 4000 4006 caba 7f00 0001 7f00  .4r.@.@.........
	0x0020:  0001 9584 1f47 3c71 7b42 831d 7583 8010  .....G<q{B..u...
	0x0030:  0200 fe28 0000 0101 080a 790d 42df 790d  ...(......y.B.y.
	0x0040:  42df                                     B.
23:26:53.766988 IP (tos 0x0, ttl 64, id 29192, offset 0, flags [DF], proto TCP (6), length 60)
    localhost.38276 > localhost.8007: Flags [P.], cksum 0xfe30 (incorrect -> 0x19a0), seq 33:41, ack 17, win 512, options [nop,nop,TS val 2030914224 ecr 2030912223], length 8
	0x0000:  0000 0000 0000 0000 0000 0000 0800 4500  ..............E.
	0x0010:  003c 7208 4000 4006 cab1 7f00 0001 7f00  .<r.@.@.........
	0x0020:  0001 9584 1f47 3c71 7b42 831d 7583 8018  .....G<q{B..u...
	0x0030:  0200 fe30 0000 0101 080a 790d 4ab0 790d  ...0......y.J.y.
	0x0040:  42df 6775 6573 7320 3837                 B.guess.87
23:26:53.767157 IP (tos 0x0, ttl 64, id 53228, offset 0, flags [DF], proto TCP (6), length 56)
    localhost.8007 > localhost.38276: Flags [P.], cksum 0xfe2c (incorrect -> 0xaa36), seq 17:21, ack 41, win 512, options [nop,nop,TS val 2030914224 ecr 2030914224], length 4
	0x0000:  0000 0000 0000 0000 0000 0000 0800 4500  ..............E.
	0x0010:  0038 cfec 4000 4006 6cd1 7f00 0001 7f00  .8..@.@.l.......
	0x0020:  0001 1f47 9584 831d 7583 3c71 7b4a 8018  ...G....u.<q{J..
	0x0030:  0200 fe2c 0000 0101 080a 790d 4ab0 790d  ...,......y.J.y.
	0x0040:  4ab0 6d6f 7265                           J.more
23:26:53.767173 IP (tos 0x0, ttl 64, id 29193, offset 0, flags [DF], proto TCP (6), length 52)
    localhost.38276 > localhost.8007: Flags [.], cksum 0xfe28 (incorrect -> 0x8a13), ack 21, win 512, options [nop,nop,TS val 2030914224 ecr 2030914224], length 0
	0x0000:  0000 0000 0000 0000 0000 0000 0800 4500  ..............E.
	0x0010:  0034 7209 4000 4006 cab8 7f00 0001 7f00  .4r.@.@.........
	0x0020:  0001 9584 1f47 3c71 7b4a 831d 7587 8010  .....G<q{J..u...
	0x0030:  0200 fe28 0000 0101 080a 790d 4ab0 790d  ...(......y.J.y.
	0x0040:  4ab0                                     J.
23:26:55.425883 IP (tos 0x0, ttl 64, id 29194, offset 0, flags [DF], proto TCP (6), length 60)
    localhost.38276 > localhost.8007: Flags [P.], cksum 0xfe30 (incorrect -> 0x0b47), seq 41:49, ack 21, win 512, options [nop,nop,TS val 2030915883 ecr 2030914224], length 8
	0x0000:  0000 0000 0000 0000 0000 0000 0800 4500  ..............E.
	0x0010:  003c 720a 4000 4006 caaf 7f00 0001 7f00  .<r.@.@.........
	0x0020:  0001 9584 1f47 3c71 7b4a 831d 7587 8018  .....G<q{J..u...
	0x0030:  0200 fe30 0000 0101 080a 790d 512b 790d  ...0......y.Q+y.
	0x0040:  4ab0 6775 6573 7320 3838                 J.guess.88
23:26:55.426009 IP (tos 0x0, ttl 64, id 53229, offset 0, flags [DF], proto TCP (6), length 59)
    localhost.8007 > localhost.38276: Flags [P.], cksum 0xfe2f (incorrect -> 0xcdc0), seq 21:28, ack 49, win 512, options [nop,nop,TS val 2030915883 ecr 2030915883], length 7
	0x0000:  0000 0000 0000 0000 0000 0000 0800 4500  ..............E.
	0x0010:  003b cfed 4000 4006 6ccd 7f00 0001 7f00  .;..@.@.l.......
	0x0020:  0001 1f47 9584 831d 7587 3c71 7b52 8018  ...G....u.<q{R..
	0x0030:  0200 fe2f 0000 0101 080a 790d 512b 790d  .../......y.Q+y.
	0x0040:  512b 636f 7272 6563 74                   Q+correct
23:26:55.426016 IP (tos 0x0, ttl 64, id 29195, offset 0, flags [DF], proto TCP (6), length 52)
    localhost.38276 > localhost.8007: Flags [.], cksum 0xfe28 (incorrect -> 0x7d0e), ack 28, win 512, options [nop,nop,TS val 2030915883 ecr 2030915883], length 0
	0x0000:  0000 0000 0000 0000 0000 0000 0800 4500  ..............E.
	0x0010:  0034 720b 4000 4006 cab6 7f00 0001 7f00  .4r.@.@.........
	0x0020:  0001 9584 1f47 3c71 7b52 831d 758e 8010  .....G<q{R..u...
	0x0030:  0200 fe28 0000 0101 080a 790d 512b 790d  ...(......y.Q+y.
	0x0040:  512b                                     Q+
23:26:55.426035 IP (tos 0x0, ttl 64, id 53230, offset 0, flags [DF], proto TCP (6), length 52)
    localhost.8007 > localhost.38276: Flags [F.], cksum 0xfe28 (incorrect -> 0x7d0d), seq 28, ack 49, win 512, options [nop,nop,TS val 2030915883 ecr 2030915883], length 0
	0x0000:  0000 0000 0000 0000 0000 0000 0800 4500  ..............E.
	0x0010:  0034 cfee 4000 4006 6cd3 7f00 0001 7f00  .4..@.@.l.......
	0x0020:  0001 1f47 9584 831d 758e 3c71 7b52 8011  ...G....u.<q{R..
	0x0030:  0200 fe28 0000 0101 080a 790d 512b 790d  ...(......y.Q+y.
	0x0040:  512b                                     Q+
23:26:55.427253 IP (tos 0x0, ttl 64, id 29196, offset 0, flags [DF], proto TCP (6), length 52)
    localhost.38276 > localhost.8007: Flags [F.], cksum 0xfe28 (incorrect -> 0x7d0b), seq 49, ack 29, win 512, options [nop,nop,TS val 2030915884 ecr 2030915883], length 0
	0x0000:  0000 0000 0000 0000 0000 0000 0800 4500  ..............E.
	0x0010:  0034 720c 4000 4006 cab5 7f00 0001 7f00  .4r.@.@.........
	0x0020:  0001 9584 1f47 3c71 7b52 831d 758f 8011  .....G<q{R..u...
	0x0030:  0200 fe28 0000 0101 080a 790d 512c 790d  ...(......y.Q,y.
	0x0040:  512b                                     Q+
23:26:55.427262 IP (tos 0x0, ttl 64, id 53231, offset 0, flags [DF], proto TCP (6), length 52)
    localhost.8007 > localhost.38276: Flags [.], cksum 0xfe28 (incorrect -> 0x7d0a), ack 50, win 512, options [nop,nop,TS val 2030915884 ecr 2030915884], length 0
	0x0000:  0000 0000 0000 0000 0000 0000 0800 4500  ..............E.
	0x0010:  0034 cfef 4000 4006 6cd2 7f00 0001 7f00  .4..@.@.l.......
	0x0020:  0001 1f47 9584 831d 758f 3c71 7b53 8010  ...G....u.<q{S..
	0x0030:  0200 fe28 0000 0101 080a 790d 512c 790d  ...(......y.Q,y.
	0x0040:  512c                                     Q,

